{"abi":[{"type":"function","name":"agentRoles","inputs":[{"name":"","type":"address","internalType":"address"}],"outputs":[{"name":"","type":"uint8","internalType":"enum AiravatLogger.AgentRole"}],"stateMutability":"view"},{"type":"function","name":"assignAgent","inputs":[{"name":"_agent","type":"address","internalType":"address"},{"name":"_role","type":"uint8","internalType":"enum AiravatLogger.AgentRole"}],"outputs":[],"stateMutability":"nonpayable"},{"type":"function","name":"getLog","inputs":[{"name":"index","type":"uint256","internalType":"uint256"}],"outputs":[{"name":"","type":"tuple","internalType":"struct AiravatLogger.LogEntry","components":[{"name":"agent","type":"address","internalType":"address"},{"name":"role","type":"uint8","internalType":"enum AiravatLogger.AgentRole"},{"name":"requestId","type":"bytes32","internalType":"bytes32"},{"name":"riskScore","type":"uint8","internalType":"uint8"},{"name":"status","type":"string","internalType":"string"},{"name":"timestamp","type":"uint256","internalType":"uint256"}]}],"stateMutability":"view"},{"type":"function","name":"getLogCount","inputs":[],"outputs":[{"name":"","type":"uint256","internalType":"uint256"}],"stateMutability":"view"},{"type":"function","name":"logs","inputs":[{"name":"","type":"uint256","internalType":"uint256"}],"outputs":[{"name":"agent","type":"address","internalType":"address"},{"name":"role","type":"uint8","internalType":"enum AiravatLogger.AgentRole"},{"name":"requestId","type":"bytes32","internalType":"bytes32"},{"name":"riskScore","type":"uint8","internalType":"uint8"},{"name":"status","type":"string","internalType":"string"},{"name":"timestamp","type":"uint256","internalType":"uint256"}],"stateMutability":"view"},{"type":"function","name":"owner","inputs":[],"outputs":[{"name":"","type":"address","internalType":"address"}],"stateMutability":"view"},{"type":"function","name":"revokeAgent","inputs":[{"name":"_agent","type":"address","internalType":"address"}],"outputs":[],"stateMutability":"nonpayable"},{"type":"function","name":"storeLog","inputs":[{"name":"_requestId","type":"string","internalType":"string"},{"name":"_riskScore","type":"uint8","internalType":"uint8"},{"name":"_status","type":"string","internalType":"string"}],"outputs":[],"stateMutability":"nonpayable"},{"type":"function","name":"transferOwnership","inputs":[{"name":"newOwner","type":"address","internalType":"address"}],"outputs":[],"stateMutability":"nonpayable"},{"type":"event","name":"AgentAssigned","inputs":[{"name":"agent","type":"address","indexed":true,"internalType":"address"},{"name":"role","type":"uint8","indexed":false,"internalType":"enum AiravatLogger.AgentRole"}],"anonymous":false},{"type":"event","name":"AgentRevoked","inputs":[{"name":"agent","type":"address","indexed":true,"internalType":"address"}],"anonymous":false},{"type":"event","name":"LogStored","inputs":[{"name":"logIndex","type":"uint256","indexed":true,"internalType":"uint256"},{"name":"agent","type":"address","indexed":true,"internalType":"address"},{"name":"role","type":"uint8","indexed":false,"internalType":"enum AiravatLogger.AgentRole"},{"name":"requestId","type":"bytes32","indexed":false,"internalType":"bytes32"},{"name":"riskScore","type":"uint8","indexed":false,"internalType":"uint8"},{"name":"status","type":"string","indexed":false,"internalType":"string"},{"name":"timestamp","type":"uint256","indexed":false,"internalType":"uint256"}],"anonymous":false},{"type":"event","name":"OwnershipTransferred","inputs":[{"name":"previousOwner","type":"address","indexed":true,"internalType":"address"},{"name":"newOwner","type":"address","indexed":true,"internalType":"address"}],"anonymous":false}],"bytecode":{"object":"0x6080604052336000806101000a81548173ffffffffffffffffffffffffffffffffffffffff021916908373ffffffffffffffffffffffffffffffffffffffff1602179055506000809054906101000a900473ffffffffffffffffffffffffffffffffffffffff1673ffffffffffffffffffffffffffffffffffffffff16600073ffffffffffffffffffffffffffffffffffffffff167f8be0079c531659141344cd1fd0a4f28419497f9722a3daafe3b4186f6b6457e060405160405180910390a361165e806100cf6000396000f3fe608060405234801561001057600080fd5b50600436106100935760003560e01c80638da5cb5b116100665780638da5cb5b14610132578063e79899bd14610150578063ef676aef14610185578063f2fde38b146101a1578063fd5781f5146101bd57610093565b80633206b2c614610098578063618033db146100c8578063669a8649146100e65780637da6ac0d14610116575b600080fd5b6100b260048036036100ad9190810190610f54565b6101d9565b6040516100bf9190611479565b60405180910390f35b6100d06103ab565b6040516100dd919061149b565b60405180910390f35b61010060048036036100fb9190810190610e66565b6103b8565b60405161010d9190611362565b60405180910390f35b610130600480360361012b9190810190610e66565b6103d8565b005b61013a61050e565b60405161014791906112df565b60405180910390f35b61016a60048036036101659190810190610f54565b610533565b60405161017c969594939291906112fa565b60405180910390f35b61019f600480360361019a9190810190610ecb565b61064e565b005b6101bb60048036036101b69190810190610e66565b61096e565b005b6101d760048036036101d29190810190610e8f565b610b2b565b005b6101e1610cc6565b6001805490508210610228576040517f08c379a000000000000000000000000000000000000000000000000000000000815260040161021f906113f9565b60405180910390fd5b6001828154811061023557fe5b90600052602060002090600502016040518060c00160405290816000820160009054906101000a900473ffffffffffffffffffffffffffffffffffffffff1673ffffffffffffffffffffffffffffffffffffffff1673ffffffffffffffffffffffffffffffffffffffff1681526020016000820160149054906101000a900460ff1660088111156102c257fe5b60088111156102cd57fe5b8152602001600182015481526020016002820160009054906101000a900460ff1660ff1660ff168152602001600382018054600181600116156101000203166002900480601f0160208091040260200160405190810160405280929190818152602001828054600181600116156101000203166002900480156103915780601f1061036657610100808354040283529160200191610391565b820191906000526020600020905b81548152906001019060200180831161037457829003601f168201915b505050505081526020016004820154815250509050919050565b6000600180549050905090565b60026020528060005260406000206000915054906101000a900460ff1681565b6000809054906101000a900473ffffffffffffffffffffffffffffffffffffffff1673ffffffffffffffffffffffffffffffffffffffff163373ffffffffffffffffffffffffffffffffffffffff1614610467576040517f08c379a000000000000000000000000000000000000000000000000000000000815260040161045e90611439565b60405180910390fd5b6000600260008373ffffffffffffffffffffffffffffffffffffffff1673ffffffffffffffffffffffffffffffffffffffff16815260200190815260200160002060006101000a81548160ff021916908360088111156104c357fe5b02179055508073ffffffffffffffffffffffffffffffffffffffff167f1d2ac3af5c639e57ee8f25bc162ea13a1ef8a663c92a4f3e33f126dd2d4feba460405160405180910390a250565b6000809054906101000a900473ffffffffffffffffffffffffffffffffffffffff1681565b6001818154811061054057fe5b90600052602060002090600502016000915090508060000160009054906101000a900473ffffffffffffffffffffffffffffffffffffffff16908060000160149054906101000a900460ff16908060010154908060020160009054906101000a900460ff1690806003018054600181600116156101000203166002900480601f01602080910402602001604051908101604052809291908181526020018280546001816001161561010002031660029004801561063e5780601f106106135761010080835404028352916020019161063e565b820191906000526020600020905b81548152906001019060200180831161062157829003601f168201915b5050505050908060040154905086565b6000600881111561065b57fe5b600260003373ffffffffffffffffffffffffffffffffffffffff1673ffffffffffffffffffffffffffffffffffffffff16815260200190815260200160002060009054906101000a900460ff1660088111156106b357fe5b14156106f4576040517f08c379a00000000000000000000000000000000000000000000000000000000081526004016106eb90611459565b60405180910390fd5b600085856040516020016107099291906112c6565b6040516020818303038152906040528051906020012090506000600260003373ffffffffffffffffffffffffffffffffffffffff1673ffffffffffffffffffffffffffffffffffffffff16815260200190815260200160002060009054906101000a900460ff16905061077a610cc6565b6040518060c001604052803373ffffffffffffffffffffffffffffffffffffffff1681526020018360088111156107ad57fe5b81526020018481526020018760ff16815260200186868080601f016020809104026020016040519081016040528093929190818152602001838380828437600081840152601f19601f8201169050808301925050505050505081526020014281525090506001819080600181540180825580915050906001820390600052602060002090600502016000909192909190915060008201518160000160006101000a81548173ffffffffffffffffffffffffffffffffffffffff021916908373ffffffffffffffffffffffffffffffffffffffff16021790555060208201518160000160146101000a81548160ff021916908360088111156108aa57fe5b02179055506040820151816001015560608201518160020160006101000a81548160ff021916908360ff16021790555060808201518160030190805190602001906108f6929190610d23565b5060a082015181600401555050503373ffffffffffffffffffffffffffffffffffffffff1660018080549050037f53ccafd93c7c2ec8b567b7a60363bb3cf8b16a31a0f098c3f2b34f51c1acfc3184868a8a8a4260405161095c9695949392919061137d565b60405180910390a35050505050505050565b6000809054906101000a900473ffffffffffffffffffffffffffffffffffffffff1673ffffffffffffffffffffffffffffffffffffffff163373ffffffffffffffffffffffffffffffffffffffff16146109fd576040517f08c379a00000000000000000000000000000000000000000000000000000000081526004016109f490611439565b60405180910390fd5b600073ffffffffffffffffffffffffffffffffffffffff168173ffffffffffffffffffffffffffffffffffffffff161415610a6d576040517f08c379a0000000000000000000000000000000000000000000000000000000008152600401610a64906113d9565b60405180910390fd5b8073ffffffffffffffffffffffffffffffffffffffff166000809054906101000a900473ffffffffffffffffffffffffffffffffffffffff1673ffffffffffffffffffffffffffffffffffffffff167f8be0079c531659141344cd1fd0a4f28419497f9722a3daafe3b4186f6b6457e060405160405180910390a3806000806101000a81548173ffffffffffffffffffffffffffffffffffffffff021916908373ffffffffffffffffffffffffffffffffffffffff16021790555050565b6000809054906101000a900473ffffffffffffffffffffffffffffffffffffffff1673ffffffffffffffffffffffffffffffffffffffff163373ffffffffffffffffffffffffffffffffffffffff1614610bba576040517f08c379a0000000000000000000000000000000000000000000000000000000008152600401610bb190611439565b60405180910390fd5b60006008811115610bc757fe5b816008811115610bd357fe5b1415610c14576040517f08c379a0000000000000000000000000000000000000000000000000000000008152600401610c0b90611419565b60405180910390fd5b80600260008473ffffffffffffffffffffffffffffffffffffffff1673ffffffffffffffffffffffffffffffffffffffff16815260200190815260200160002060006101000a81548160ff02191690836008811115610c6f57fe5b02179055508173ffffffffffffffffffffffffffffffffffffffff167f0145e78ba7f6a8c9e0efc46b4385c52d39b259999628bdadd92908e559d9386482604051610cba9190611362565b60405180910390a25050565b6040518060c00160405280600073ffffffffffffffffffffffffffffffffffffffff16815260200160006008811115610cfb57fe5b815260200160008019168152602001600060ff16815260200160608152602001600081525090565b828054600181600116156101000203166002900490600052602060002090601f016020900481019282601f10610d6457805160ff1916838001178555610d92565b82800160010185558215610d92579182015b82811115610d91578251825591602001919060010190610d76565b5b509050610d9f9190610da3565b5090565b610dc591905b80821115610dc1576000816000905550600101610da9565b5090565b90565b600081359050610dd7816115c6565b92915050565b600081359050610dec816115dd565b92915050565b60008083601f840112610e0457600080fd5b8235905067ffffffffffffffff811115610e1d57600080fd5b602083019150836001820283011115610e3557600080fd5b9250929050565b600081359050610e4b816115ed565b92915050565b600081359050610e6081611604565b92915050565b600060208284031215610e7857600080fd5b6000610e8684828501610dc8565b91505092915050565b60008060408385031215610ea257600080fd5b6000610eb085828601610dc8565b9250506020610ec185828601610ddd565b9150509250929050565b600080600080600060608688031215610ee357600080fd5b600086013567ffffffffffffffff811115610efd57600080fd5b610f0988828901610df2565b95509550506020610f1c88828901610e51565b935050604086013567ffffffffffffffff811115610f3957600080fd5b610f4588828901610df2565b92509250509295509295909350565b600060208284031215610f6657600080fd5b6000610f7484828501610e3c565b91505092915050565b610f86816114ee565b82525050565b610f95816114ee565b82525050565b610fa481611500565b82525050565b610fb381611500565b82525050565b610fc281611554565b82525050565b610fd181611554565b82525050565b6000610fe383856114d2565b9350610ff0838584611566565b610ff9836115a8565b840190509392505050565b600061101083856114e3565b935061101d838584611566565b82840190509392505050565b6000611034826114b6565b61103e81856114c1565b935061104e818560208601611575565b611057816115a8565b840191505092915050565b600061106d826114b6565b61107781856114d2565b9350611087818560208601611575565b611090816115a8565b840191505092915050565b60006110a86026836114d2565b91507f4f776e61626c653a206e6577206f776e657220697320746865207a65726f206160008301527f64647265737300000000000000000000000000000000000000000000000000006020830152604082019050919050565b600061110e600d836114d2565b91507f496e76616c696420696e646578000000000000000000000000000000000000006000830152602082019050919050565b600061114e600c836114d2565b91507f496e76616c696420726f6c6500000000000000000000000000000000000000006000830152602082019050919050565b600061118e6020836114d2565b91507f4f776e61626c653a2063616c6c6572206973206e6f7420746865206f776e65726000830152602082019050919050565b60006111ce6015836114d2565b91507f4e6f7420616e2061737369676e6564206167656e7400000000000000000000006000830152602082019050919050565b600060c0830160008301516112196000860182610f7d565b50602083015161122c6020860182610fb9565b50604083015161123f6040860182610f9b565b50606083015161125260608601826112a8565b506080830151848203608086015261126a8282611029565b91505060a083015161127f60a086018261128a565b508091505092915050565b6112938161153d565b82525050565b6112a28161153d565b82525050565b6112b181611547565b82525050565b6112c081611547565b82525050565b60006112d3828486611004565b91508190509392505050565b60006020820190506112f46000830184610f8c565b92915050565b600060c08201905061130f6000830189610f8c565b61131c6020830188610fc8565b6113296040830187610faa565b61133660608301866112b7565b81810360808301526113488185611062565b905061135760a0830184611299565b979650505050505050565b60006020820190506113776000830184610fc8565b92915050565b600060a0820190506113926000830189610fc8565b61139f6020830188610faa565b6113ac60408301876112b7565b81810360608301526113bf818587610fd7565b90506113ce6080830184611299565b979650505050505050565b600060208201905081810360008301526113f28161109b565b9050919050565b6000602082019050818103600083015261141281611101565b9050919050565b6000602082019050818103600083015261143281611141565b9050919050565b6000602082019050818103600083015261145281611181565b9050919050565b60006020820190508181036000830152611472816111c1565b9050919050565b600060208201905081810360008301526114938184611201565b905092915050565b60006020820190506114b06000830184611299565b92915050565b600081519050919050565b600082825260208201905092915050565b600082825260208201905092915050565b600081905092915050565b60006114f98261151d565b9050919050565b6000819050919050565b6000819050611518826115b9565b919050565b600073ffffffffffffffffffffffffffffffffffffffff82169050919050565b6000819050919050565b600060ff82169050919050565b600061155f8261150a565b9050919050565b82818337600083830152505050565b60005b83811015611593578082015181840152602081019050611578565b838111156115a2576000848401525b50505050565b6000601f19601f8301169050919050565b600981106115c357fe5b50565b6115cf816114ee565b81146115da57600080fd5b50565b600981106115ea57600080fd5b50565b6115f68161153d565b811461160157600080fd5b50565b61160d81611547565b811461161857600080fd5b5056fea365627a7a72315820edb8cfb341b2cf540ed191d3b9f64e6ea9534d251e7e22936b316a8760c343bf6c6578706572696d656e74616cf564736f6c63430005110040","linkReferences":{}},"methodIdentifiers":{"agentRoles(address)":"669a8649","assignAgent(address,uint8)":"fd5781f5","getLog(uint256)":"3206b2c6","getLogCount()":"618033db","logs(uint256)":"e79899bd","owner()":"8da5cb5b","revokeAgent(address)":"7da6ac0d","storeLog(string,uint8,string)":"ef676aef","transferOwnership(address)":"f2fde38b"},"id":0}