{
  "abi": [
    {
      "type": "function",
      "name": "agentRoles",
      "inputs": [
        {
          "name": "",
          "type": "address",
          "internalType": "address"
        }
      ],
      "outputs": [
        {
          "name": "",
          "type": "uint8",
          "internalType": "enum AiravatLogger.AgentRole"
        }
      ],
      "stateMutability": "view"
    },
    {
      "type": "function",
      "name": "assignAgent",
      "inputs": [
        {
          "name": "_agent",
          "type": "address",
          "internalType": "address"
        },
        {
          "name": "_role",
          "type": "uint8",
          "internalType": "enum AiravatLogger.AgentRole"
        }
      ],
      "outputs": [],
      "stateMutability": "nonpayable"
    },
    {
      "type": "function",
      "name": "getLog",
      "inputs": [
        {
          "name": "index",
          "type": "uint256",
          "internalType": "uint256"
        }
      ],
      "outputs": [
        {
          "name": "",
          "type": "tuple",
          "internalType": "struct AiravatLogger.LogEntry",
          "components": [
            {
              "name": "agent",
              "type": "address",
              "internalType": "address"
            },
            {
              "name": "role",
              "type": "uint8",
              "internalType": "enum AiravatLogger.AgentRole"
            },
            {
              "name": "requestId",
              "type": "bytes32",
              "internalType": "bytes32"
            },
            {
              "name": "riskScore",
              "type": "uint8",
              "internalType": "uint8"
            },
            {
              "name": "status",
              "type": "string",
              "internalType": "string"
            },
            {
              "name": "timestamp",
              "type": "uint256",
              "internalType": "uint256"
            }
          ]
        }
      ],
      "stateMutability": "view"
    },
    {
      "type": "function",
      "name": "getLogCount",
      "inputs": [],
      "outputs": [
        {
          "name": "",
          "type": "uint256",
          "internalType": "uint256"
        }
      ],
      "stateMutability": "view"
    },
    {
      "type": "function",
      "name": "logs",
      "inputs": [
        {
          "name": "",
          "type": "uint256",
          "internalType": "uint256"
        }
      ],
      "outputs": [
        {
          "name": "agent",
          "type": "address",
          "internalType": "address"
        },
        {
          "name": "role",
          "type": "uint8",
          "internalType": "enum AiravatLogger.AgentRole"
        },
        {
          "name": "requestId",
          "type": "bytes32",
          "internalType": "bytes32"
        },
        {
          "name": "riskScore",
          "type": "uint8",
          "internalType": "uint8"
        },
        {
          "name": "status",
          "type": "string",
          "internalType": "string"
        },
        {
          "name": "timestamp",
          "type": "uint256",
          "internalType": "uint256"
        }
      ],
      "stateMutability": "view"
    },
    {
      "type": "function",
      "name": "owner",
      "inputs": [],
      "outputs": [
        {
          "name": "",
          "type": "address",
          "internalType": "address"
        }
      ],
      "stateMutability": "view"
    },
    {
      "type": "function",
      "name": "revokeAgent",
      "inputs": [
        {
          "name": "_agent",
          "type": "address",
          "internalType": "address"
        }
      ],
      "outputs": [],
      "stateMutability": "nonpayable"
    },
    {
      "type": "function",
      "name": "storeLog",
      "inputs": [
        {
          "name": "_requestId",
          "type": "string",
          "internalType": "string"
        },
        {
          "name": "_riskScore",
          "type": "uint8",
          "internalType": "uint8"
        },
        {
          "name": "_status",
          "type": "string",
          "internalType": "string"
        }
      ],
      "outputs": [],
      "stateMutability": "nonpayable"
    },
    {
      "type": "function",
      "name": "transferOwnership",
      "inputs": [
        {
          "name": "newOwner",
          "type": "address",
          "internalType": "address"
        }
      ],
      "outputs": [],
      "stateMutability": "nonpayable"
    },
    {
      "type": "event",
      "name": "AgentAssigned",
      "inputs": [
        {
          "name": "agent",
          "type": "address",
          "indexed": true,
          "internalType": "address"
        },
        {
          "name": "role",
          "type": "uint8",
          "indexed": false,
          "internalType": "enum AiravatLogger.AgentRole"
        }
      ],
      "anonymous": false
    },
    {
      "type": "event",
      "name": "AgentRevoked",
      "inputs": [
        {
          "name": "agent",
          "type": "address",
          "indexed": true,
          "internalType": "address"
        }
      ],
      "anonymous": false
    },
    {
      "type": "event",
      "name": "LogStored",
      "inputs": [
        {
          "name": "logIndex",
          "type": "uint256",
          "indexed": true,
          "internalType": "uint256"
        },
        {
          "name": "agent",
          "type": "address",
          "indexed": true,
          "internalType": "address"
        },
        {
          "name": "role",
          "type": "uint8",
          "indexed": false,
          "internalType": "enum AiravatLogger.AgentRole"
        },
        {
          "name": "requestId",
          "type": "bytes32",
          "indexed": false,
          "internalType": "bytes32"
        },
        {
          "name": "riskScore",
          "type": "uint8",
          "indexed": false,
          "internalType": "uint8"
        },
        {
          "name": "status",
          "type": "string",
          "indexed": false,
          "internalType": "string"
        },
        {
          "name": "timestamp",
          "type": "uint256",
          "indexed": false,
          "internalType": "uint256"
        }
      ],
      "anonymous": false
    },
    {
      "type": "event",
      "name": "OwnershipTransferred",
      "inputs": [
        {
          "name": "previousOwner",
          "type": "address",
          "indexed": true,
          "internalType": "address"
        },
        {
          "name": "newOwner",
          "type": "address",
          "indexed": true,
          "internalType": "address"
        }
      ],
      "anonymous": false
    }
  ],
  "bytecode": {
    "object": "0x608060405234801561000f575f80fd5b50335f806101000a81548173ffffffffffffffffffffffffffffffffffffffff021916908373ffffffffffffffffffffffffffffffffffffffff1602179055505f8054906101000a900473ffffffffffffffffffffffffffffffffffffffff1673ffffffffffffffffffffffffffffffffffffffff165f73ffffffffffffffffffffffffffffffffffffffff167f8be0079c531659141344cd1fd0a4f28419497f9722a3daafe3b4186f6b6457e060405160405180910390a361196c806100d55f395ff3fe608060405234801561000f575f80fd5b5060043610610091575f3560e01c80638da5cb5b116100645780638da5cb5b1461012f578063e79899bd1461014d578063ef676aef14610182578063f2fde38b1461019e578063fd5781f5146101ba57610091565b80633206b2c614610095578063618033db146100c5578063669a8649146100e35780637da6ac0d14610113575b5f80fd5b6100af60048036038101906100aa9190610d46565b6101d6565b6040516100bc9190610f75565b60405180910390f35b6100cd6103a5565b6040516100da9190610fa4565b60405180910390f35b6100fd60048036038101906100f89190610fe7565b6103b1565b60405161010a9190611021565b60405180910390f35b61012d60048036038101906101289190610fe7565b6103ce565b005b610137610505565b6040516101449190611049565b60405180910390f35b61016760048036038101906101629190610d46565b610528565b604051610179969594939291906110c8565b60405180910390f35b61019c600480360381019061019791906111b9565b61062c565b005b6101b860048036038101906101b39190610fe7565b61094d565b005b6101d460048036038101906101cf919061126d565b610b03565b005b6101de610cac565b6001805490508210610225576040517f08c379a000000000000000000000000000000000000000000000000000000000815260040161021c906112f5565b60405180910390fd5b6001828154811061023957610238611313565b5b905f5260205f2090600502016040518060c00160405290815f82015f9054906101000a900473ffffffffffffffffffffffffffffffffffffffff1673ffffffffffffffffffffffffffffffffffffffff1673ffffffffffffffffffffffffffffffffffffffff1681526020015f820160149054906101000a900460ff1660088111156102c8576102c7610db0565b5b60088111156102da576102d9610db0565b5b815260200160018201548152602001600282015f9054906101000a900460ff1660ff1660ff1681526020016003820180546103149061136d565b80601f01602080910402602001604051908101604052809291908181526020018280546103409061136d565b801561038b5780601f106103625761010080835404028352916020019161038b565b820191905f5260205f20905b81548152906001019060200180831161036e57829003601f168201915b505050505081526020016004820154815250509050919050565b5f600180549050905090565b6002602052805f5260405f205f915054906101000a900460ff1681565b5f8054906101000a900473ffffffffffffffffffffffffffffffffffffffff1673ffffffffffffffffffffffffffffffffffffffff163373ffffffffffffffffffffffffffffffffffffffff161461045b576040517f08c379a0000000000000000000000000000000000000000000000000000000008152600401610452906113e7565b60405180910390fd5b5f60025f8373ffffffffffffffffffffffffffffffffffffffff1673ffffffffffffffffffffffffffffffffffffffff1681526020019081526020015f205f6101000a81548160ff021916908360088111156104ba576104b9610db0565b5b02179055508073ffffffffffffffffffffffffffffffffffffffff167f1d2ac3af5c639e57ee8f25bc162ea13a1ef8a663c92a4f3e33f126dd2d4feba460405160405180910390a250565b5f8054906101000a900473ffffffffffffffffffffffffffffffffffffffff1681565b60018181548110610537575f80fd5b905f5260205f2090600502015f91509050805f015f9054906101000a900473ffffffffffffffffffffffffffffffffffffffff1690805f0160149054906101000a900460ff1690806001015490806002015f9054906101000a900460ff16908060030180546105a59061136d565b80601f01602080910402602001604051908101604052809291908181526020018280546105d19061136d565b801561061c5780601f106105f35761010080835404028352916020019161061c565b820191905f5260205f20905b8154815290600101906020018083116105ff57829003601f168201915b5050505050908060040154905086565b5f600881111561063f5761063e610db0565b5b60025f3373ffffffffffffffffffffffffffffffffffffffff1673ffffffffffffffffffffffffffffffffffffffff1681526020019081526020015f205f9054906101000a900460ff16600881111561069b5761069a610db0565b5b036106db576040517f08c379a00000000000000000000000000000000000000000000000000000000081526004016106d29061144f565b60405180910390fd5b5f85856040516020016106ef9291906114a9565b6040516020818303038152906040528051906020012090505f60025f3373ffffffffffffffffffffffffffffffffffffffff1673ffffffffffffffffffffffffffffffffffffffff1681526020019081526020015f205f9054906101000a900460ff1690505f6040518060c001604052803373ffffffffffffffffffffffffffffffffffffffff16815260200183600881111561078f5761078e610db0565b5b81526020018481526020018760ff16815260200186868080601f0160208091040260200160405190810160405280939291908181526020018383808284375f81840152601f19601f820116905080830192505050505050508152602001428152509050600181908060018154018082558091505060019003905f5260205f2090600502015f909190919091505f820151815f015f6101000a81548173ffffffffffffffffffffffffffffffffffffffff021916908373ffffffffffffffffffffffffffffffffffffffff1602179055506020820151815f0160146101000a81548160ff0219169083600881111561088957610888610db0565b5b0217905550604082015181600101556060820151816002015f6101000a81548160ff021916908360ff16021790555060808201518160030190816108cd919061168b565b5060a0820151816004015550503373ffffffffffffffffffffffffffffffffffffffff16600180805490506109029190611787565b7f53ccafd93c7c2ec8b567b7a60363bb3cf8b16a31a0f098c3f2b34f51c1acfc3184868a8a8a4260405161093b969594939291906117e6565b60405180910390a35050505050505050565b5f8054906101000a900473ffffffffffffffffffffffffffffffffffffffff1673ffffffffffffffffffffffffffffffffffffffff163373ffffffffffffffffffffffffffffffffffffffff16146109da576040517f08c379a00000000000000000000000000000000000000000000000000000000081526004016109d1906113e7565b60405180910390fd5b5f73ffffffffffffffffffffffffffffffffffffffff168173ffffffffffffffffffffffffffffffffffffffff1603610a48576040517f08c379a0000000000000000000000000000000000000000000000000000000008152600401610a3f906118b0565b60405180910390fd5b8073ffffffffffffffffffffffffffffffffffffffff165f8054906101000a900473ffffffffffffffffffffffffffffffffffffffff1673ffffffffffffffffffffffffffffffffffffffff167f8be0079c531659141344cd1fd0a4f28419497f9722a3daafe3b4186f6b6457e060405160405180910390a3805f806101000a81548173ffffffffffffffffffffffffffffffffffffffff021916908373ffffffffffffffffffffffffffffffffffffffff16021790555050565b5f8054906101000a900473ffffffffffffffffffffffffffffffffffffffff1673ffffffffffffffffffffffffffffffffffffffff163373ffffffffffffffffffffffffffffffffffffffff1614610b90576040517f08c379a0000000000000000000000000000000000000000000000000000000008152600401610b87906113e7565b60405180910390fd5b5f6008811115610ba357610ba2610db0565b5b816008811115610bb657610bb5610db0565b5b03610bf6576040517f08c379a0000000000000000000000000000000000000000000000000000000008152600401610bed90611918565b60405180910390fd5b8060025f8473ffffffffffffffffffffffffffffffffffffffff1673ffffffffffffffffffffffffffffffffffffffff1681526020019081526020015f205f6101000a81548160ff02191690836008811115610c5557610c54610db0565b5b02179055508173ffffffffffffffffffffffffffffffffffffffff167f0145e78ba7f6a8c9e0efc46b4385c52d39b259999628bdadd92908e559d9386482604051610ca09190611021565b60405180910390a25050565b6040518060c001604052805f73ffffffffffffffffffffffffffffffffffffffff1681526020015f6008811115610ce657610ce5610db0565b5b81526020015f80191681526020015f60ff168152602001606081526020015f81525090565b5f80fd5b5f80fd5b5f819050919050565b610d2581610d13565b8114610d2f575f80fd5b50565b5f81359050610d4081610d1c565b92915050565b5f60208284031215610d5b57610d5a610d0b565b5b5f610d6884828501610d32565b91505092915050565b5f73ffffffffffffffffffffffffffffffffffffffff82169050919050565b5f610d9a82610d71565b9050919050565b610daa81610d90565b82525050565b7f4e487b71000000000000000000000000000000000000000000000000000000005f52602160045260245ffd5b60098110610dee57610ded610db0565b5b50565b5f819050610dfe82610ddd565b919050565b5f610e0d82610df1565b9050919050565b610e1d81610e03565b82525050565b5f819050919050565b610e3581610e23565b82525050565b5f60ff82169050919050565b610e5081610e3b565b82525050565b5f81519050919050565b5f82825260208201905092915050565b5f5b83811015610e8d578082015181840152602081019050610e72565b5f8484015250505050565b5f601f19601f8301169050919050565b5f610eb282610e56565b610ebc8185610e60565b9350610ecc818560208601610e70565b610ed581610e98565b840191505092915050565b610ee981610d13565b82525050565b5f60c083015f830151610f045f860182610da1565b506020830151610f176020860182610e14565b506040830151610f2a6040860182610e2c565b506060830151610f3d6060860182610e47565b5060808301518482036080860152610f558282610ea8565b91505060a0830151610f6a60a0860182610ee0565b508091505092915050565b5f6020820190508181035f830152610f8d8184610eef565b905092915050565b610f9e81610d13565b82525050565b5f602082019050610fb75f830184610f95565b92915050565b610fc681610d90565b8114610fd0575f80fd5b50565b5f81359050610fe181610fbd565b92915050565b5f60208284031215610ffc57610ffb610d0b565b5b5f61100984828501610fd3565b91505092915050565b61101b81610e03565b82525050565b5f6020820190506110345f830184611012565b92915050565b61104381610d90565b82525050565b5f60208201905061105c5f83018461103a565b92915050565b61106b81610e23565b82525050565b61107a81610e3b565b82525050565b5f82825260208201905092915050565b5f61109a82610e56565b6110a48185611080565b93506110b4818560208601610e70565b6110bd81610e98565b840191505092915050565b5f60c0820190506110db5f83018961103a565b6110e86020830188611012565b6110f56040830187611062565b6111026060830186611071565b81810360808301526111148185611090565b905061112360a0830184610f95565b979650505050505050565b5f80fd5b5f80fd5b5f80fd5b5f8083601f84011261114f5761114e61112e565b5b8235905067ffffffffffffffff81111561116c5761116b611132565b5b60208301915083600182028301111561118857611187611136565b5b9250929050565b61119881610e3b565b81146111a2575f80fd5b50565b5f813590506111b38161118f565b92915050565b5f805f805f606086880312156111d2576111d1610d0b565b5b5f86013567ffffffffffffffff8111156111ef576111ee610d0f565b5b6111fb8882890161113a565b9550955050602061120e888289016111a5565b935050604086013567ffffffffffffffff81111561122f5761122e610d0f565b5b61123b8882890161113a565b92509250509295509295909350565b60098110611256575f80fd5b50565b5f813590506112678161124a565b92915050565b5f806040838503121561128357611282610d0b565b5b5f61129085828601610fd3565b92505060206112a185828601611259565b9150509250929050565b7f496e76616c696420696e646578000000000000000000000000000000000000005f82015250565b5f6112df600d83611080565b91506112ea826112ab565b602082019050919050565b5f6020820190508181035f83015261130c816112d3565b9050919050565b7f4e487b71000000000000000000000000000000000000000000000000000000005f52603260045260245ffd5b7f4e487b71000000000000000000000000000000000000000000000000000000005f52602260045260245ffd5b5f600282049050600182168061138457607f821691505b60208210810361139757611396611340565b5b50919050565b7f4f776e61626c653a2063616c6c6572206973206e6f7420746865206f776e65725f82015250565b5f6113d1602083611080565b91506113dc8261139d565b602082019050919050565b5f6020820190508181035f8301526113fe816113c5565b9050919050565b7f4e6f7420616e2061737369676e6564206167656e7400000000000000000000005f82015250565b5f611439601583611080565b915061144482611405565b602082019050919050565b5f6020820190508181035f8301526114668161142d565b9050919050565b5f81905092915050565b828183375f83830152505050565b5f611490838561146d565b935061149d838584611477565b82840190509392505050565b5f6114b5828486611485565b91508190509392505050565b7f4e487b71000000000000000000000000000000000000000000000000000000005f52604160045260245ffd5b5f819050815f5260205f209050919050565b5f6020601f8301049050919050565b5f82821b905092915050565b5f6008830261154a7fffffffffffffffffffffffffffffffffffffffffffffffffffffffffffffffff8261150f565b611554868361150f565b95508019841693508086168417925050509392505050565b5f819050919050565b5f61158f61158a61158584610d13565b61156c565b610d13565b9050919050565b5f819050919050565b6115a883611575565b6115bc6115b482611596565b84845461151b565b825550505050565b5f90565b6115d06115c4565b6115db81848461159f565b505050565b5b818110156115fe576115f35f826115c8565b6001810190506115e1565b5050565b601f82111561164357611614816114ee565b61161d84611500565b8101602085101561162c578190505b61164061163885611500565b8301826115e0565b50505b505050565b5f82821c905092915050565b5f6116635f1984600802611648565b1980831691505092915050565b5f61167b8383611654565b9150826002028217905092915050565b61169482610e56565b67ffffffffffffffff8111156116ad576116ac6114c1565b5b6116b7825461136d565b6116c2828285611602565b5f60209050601f8311600181146116f3575f84156116e1578287015190505b6116eb8582611670565b865550611752565b601f198416611701866114ee565b5f5b8281101561172857848901518255600182019150602085019450602081019050611703565b868310156117455784890151611741601f891682611654565b8355505b6001600288020188555050505b505050505050565b7f4e487b71000000000000000000000000000000000000000000000000000000005f52601160045260245ffd5b5f61179182610d13565b915061179c83610d13565b92508282039050818111156117b4576117b361175a565b5b92915050565b5f6117c58385611080565b93506117d2838584611477565b6117db83610e98565b840190509392505050565b5f60a0820190506117f95f830189611012565b6118066020830188611062565b6118136040830187611071565b81810360608301526118268185876117ba565b90506118356080830184610f95565b979650505050505050565b7f4f776e61626c653a206e6577206f776e657220697320746865207a65726f20615f8201527f6464726573730000000000000000000000000000000000000000000000000000602082015250565b5f61189a602683611080565b91506118a582611840565b604082019050919050565b5f6020820190508181035f8301526118c78161188e565b9050919050565b7f496e76616c696420726f6c6500000000000000000000000000000000000000005f82015250565b5f611902600c83611080565b915061190d826118ce565b602082019050919050565b5f6020820190508181035f83015261192f816118f6565b905091905056fea2646970667358221220f7e1d9d0153180de332ce6dcff2f7d50f68df9985d289eb65ef524b66349d37364736f6c63430008140033",
    "linkReferences": {}
  },
  "methodIdentifiers": {
    "agentRoles(address)": "669a8649",
    "assignAgent(address,uint8)": "fd5781f5",
    "getLog(uint256)": "3206b2c6",
    "getLogCount()": "618033db",
    "logs(uint256)": "e79899bd",
    "owner()": "8da5cb5b",
    "revokeAgent(address)": "7da6ac0d",
    "storeLog(string,uint8,string)": "ef676aef",
    "transferOwnership(address)": "f2fde38b"
  },
  "id": 0
}