{
  "abi": [
    {
      "type": "function",
      "name": "createLog",
      "inputs": [
        {
          "name": "userId",
          "type": "string",
          "internalType": "string"
        },
        {
          "name": "organization",
          "type": "string",
          "internalType": "string"
        },
        {
          "name": "dataType",
          "type": "string",
          "internalType": "string"
        },
        {
          "name": "purpose",
          "type": "string",
          "internalType": "string"
        },
        {
          "name": "accessLevel",
          "type": "string",
          "internalType": "string"
        },
        {
          "name": "status",
          "type": "string",
          "internalType": "string"
        },
        {
          "name": "userConsent",
          "type": "bool",
          "internalType": "bool"
        },
        {
          "name": "dataMinimized",
          "type": "bool",
          "internalType": "bool"
        },
        {
          "name": "zkProofUsed",
          "type": "bool",
          "internalType": "bool"
        },
        {
          "name": "retentionDays",
          "type": "uint16",
          "internalType": "uint16"
        }
      ],
      "outputs": [],
      "stateMutability": "nonpayable"
    },
    {
      "type": "function",
      "name": "getLog",
      "inputs": [
        {
          "name": "index",
          "type": "uint256",
          "internalType": "uint256"
        }
      ],
      "outputs": [
        {
          "name": "",
          "type": "tuple",
          "internalType": "struct DataAccessLogger.LogEntry",
          "components": [
            {
              "name": "userId",
              "type": "string",
              "internalType": "string"
            },
            {
              "name": "organization",
              "type": "string",
              "internalType": "string"
            },
            {
              "name": "dataType",
              "type": "string",
              "internalType": "string"
            },
            {
              "name": "purpose",
              "type": "string",
              "internalType": "string"
            },
            {
              "name": "accessLevel",
              "type": "string",
              "internalType": "string"
            },
            {
              "name": "status",
              "type": "string",
              "internalType": "string"
            },
            {
              "name": "userConsent",
              "type": "bool",
              "internalType": "bool"
            },
            {
              "name": "dataMinimized",
              "type": "bool",
              "internalType": "bool"
            },
            {
              "name": "zkProofUsed",
              "type": "bool",
              "internalType": "bool"
            },
            {
              "name": "retentionDays",
              "type": "uint16",
              "internalType": "uint16"
            },
            {
              "name": "timestamp",
              "type": "uint256",
              "internalType": "uint256"
            }
          ]
        }
      ],
      "stateMutability": "view"
    },
    {
      "type": "function",
      "name": "getLogCount",
      "inputs": [],
      "outputs": [
        {
          "name": "",
          "type": "uint256",
          "internalType": "uint256"
        }
      ],
      "stateMutability": "view"
    },
    {
      "type": "event",
      "name": "LogCreated",
      "inputs": [
        {
          "name": "logId",
          "type": "uint256",
          "indexed": true,
          "internalType": "uint256"
        },
        {
          "name": "userId",
          "type": "string",
          "indexed": true,
          "internalType": "string"
        },
        {
          "name": "organization",
          "type": "string",
          "indexed": false,
          "internalType": "string"
        },
        {
          "name": "dataType",
          "type": "string",
          "indexed": false,
          "internalType": "string"
        },
        {
          "name": "purpose",
          "type": "string",
          "indexed": false,
          "internalType": "string"
        },
        {
          "name": "accessLevel",
          "type": "string",
          "indexed": false,
          "internalType": "string"
        },
        {
          "name": "status",
          "type": "string",
          "indexed": false,
          "internalType": "string"
        },
        {
          "name": "userConsent",
          "type": "bool",
          "indexed": false,
          "internalType": "bool"
        },
        {
          "name": "dataMinimized",
          "type": "bool",
          "indexed": false,
          "internalType": "bool"
        },
        {
          "name": "zkProofUsed",
          "type": "bool",
          "indexed": false,
          "internalType": "bool"
        },
        {
          "name": "retentionDays",
          "type": "uint16",
          "indexed": false,
          "internalType": "uint16"
        },
        {
          "name": "timestamp",
          "type": "uint256",
          "indexed": false,
          "internalType": "uint256"
        }
      ],
      "anonymous": false
    }
  ],
  "bytecode": {
    "object": "0x6080806040523461001657610f11908161001b8239f35b5f80fdfe6080806040526004361015610012575f80fd5b5f3560e01c9081633206b2c614610a6957508063618033db14610a4d5763f98d6aae1461003d575f80fd5b34610a4957610140366003190112610a49576004356001600160401b038111610a495761006e903690600401610ce7565b906024356001600160401b038111610a495761008e903690600401610ce7565b6044356001600160401b038111610a49576100ad903690600401610ce7565b94906064356001600160401b038111610a49576100ce903690600401610ce7565b906084356001600160401b038111610a49576100ee903690600401610ce7565b9190926001600160401b0360a43511610a49576101103660a435600401610ce7565b95909660c435151560c43503610a495760e435151560e43503610a49576101043515156101043503610a495761ffff61012435166101243503610a495760405161015981610d14565b61016436838e610d51565b8152610171368b8d610d51565b6020820152610181368e85610d51565b6040820152610191368587610d51565b60608201526101a1368789610d51565b60808201526101b136898b610d51565b60a082015260c435151560c082015260e435151560e082015261010435151561010082015261ffff6101243516610120820152426101408201525f546801000000000000000081101561063e5780600161020d92015f55610d96565b919091610a365780518051906001600160401b03821161063e5781906102338554610de2565b601f81116109e9575b50602090601f8311600114610981575f92610976575b50508160011b915f199060031b1c19161782555b60208101518051906001600160401b03821161063e57819061028b6001860154610de2565b601f8111610926575b50602090601f83116001146108b8575f926108ad575b50508160011b915f199060031b1c19161760018301555b60408101518051906001600160401b03821161063e5781906102e66002860154610de2565b601f811161085d575b50602090601f83116001146107ef575f926107e4575b50508160011b915f199060031b1c19161760028301555b60608101518051906001600160401b03821161063e5781906103416003860154610de2565b601f8111610794575b50602090601f8311600114610726575f9261071b575b50508160011b915f199060031b1c19161760038301555b60808101518051906001600160401b03821161063e57819061039c6004860154610de2565b601f81116106cb575b50602090601f831160011461065d575f92610652575b50508160011b915f199060031b1c19161760048301555b60a08101518051906001600160401b03821161063e576103f56005850154610de2565b601f81116105fa575b50602090601f831160011461058857918060079492610140945f9261057d575b50508160011b915f199060031b1c19161760058501555b6006840160c08201511515815461ff0060e0850151151560081b1662ff0000610100860151151560101b169160ff64ffff00000061012088015160181b1694169064ffffffffff191617171717905501519101555f549a8b5f198101116105695781604051928392833781015f81520390209a604051998a996101408b526101408b01906104c292610e1a565b9089820360208b01526104d492610e1a565b9087820360408901526104e692610e1a565b9085820360608701526104f892610e1a565b90838203608085015261050a92610e1a565b9260c435151560a083015260e435151560c083015261010435151560e08301526101243561ffff16610100830152426101208301525f190192037fb6338faf1d03ba0564db27d14def2b6c297cc46b43d0ab258450029fddcf793891a3005b634e487b7160e01b5f52601160045260245ffd5b015190505f8061041e565b90600585015f5260205f20915f5b601f19851681106105e2575092600794926001926101409583601f198116106105ca575b505050811b016005850155610435565b01515f1960f88460031b161c191690555f80806105ba565b91926020600181928685015181550194019201610596565b600585015f5260205f20601f840160051c810160208510610637575b601f830160051c8201811061062c5750506103fe565b5f8155600101610616565b5080610616565b634e487b7160e01b5f52604160045260245ffd5b015190505f806103bb565b9250600485015f5260205f20905f935b601f19841685106106b0576001945083601f19811610610698575b505050811b0160048301556103d2565b01515f1960f88460031b161c191690555f8080610688565b8181015183556020948501946001909301929091019061066d565b909150600485015f5260205f20601f840160051c810160208510610714575b90849392915b601f830160051c820181106107065750506103a5565b5f81558594506001016106f0565b50806106ea565b015190505f80610360565b9250600385015f5260205f20905f935b601f1984168510610779576001945083601f19811610610761575b505050811b016003830155610377565b01515f1960f88460031b161c191690555f8080610751565b81810151835560209485019460019093019290910190610736565b909150600385015f5260205f20601f840160051c8101602085106107dd575b90849392915b601f830160051c820181106107cf57505061034a565b5f81558594506001016107b9565b50806107b3565b015190505f80610305565b9250600285015f5260205f20905f935b601f1984168510610842576001945083601f1981161061082a575b505050811b01600283015561031c565b01515f1960f88460031b161c191690555f808061081a565b818101518355602094850194600190930192909101906107ff565b909150600285015f5260205f20601f840160051c8101602085106108a6575b90849392915b601f830160051c820181106108985750506102ef565b5f8155859450600101610882565b508061087c565b015190505f806102aa565b9250600185015f5260205f20905f935b601f198416851061090b576001945083601f198116106108f3575b505050811b0160018301556102c1565b01515f1960f88460031b161c191690555f80806108e3565b818101518355602094850194600190930192909101906108c8565b909150600185015f5260205f20601f840160051c81016020851061096f575b90849392915b601f830160051c82018110610961575050610294565b5f815585945060010161094b565b5080610945565b015190505f80610252565b9250845f5260205f20905f935b601f19841685106109ce576001945083601f198116106109b6575b505050811b018255610266565b01515f1960f88460031b161c191690555f80806109a9565b8181015183556020948501946001909301929091019061098e565b909150845f5260205f20601f840160051c810160208510610a2f575b90849392915b601f830160051c82018110610a2157505061023c565b5f8155859450600101610a0b565b5080610a05565b634e487b7160e01b5f525f60045260245ffd5b5f80fd5b34610a49575f366003190112610a495760205f54604051908152f35b34610a49576020366003190112610a49575f61014060043592610a8b81610d14565b60608152606060208201526060604082015260608082015260606080820152606060a08201528260c08201528260e0820152826101008201528261012082015201525f54811015610c7057610adf90610d96565b50600760405191610aef83610d14565b610af881610e3a565b8352610b0660018201610e3a565b6020840152610b1760028201610e3a565b6040840152610b2860038201610e3a565b6060840152610b3960048201610e3a565b6080840152610b4a60058201610e3a565b60a084015261ffff600682015460ff8116151560c086015260ff8160081c16151560e086015260ff8160101c16151561010086015260181c166101208401520154610140820152604051809160208252610140610c2e610bb883516101606020870152610180860190610ca9565b610c19610c05610bf1610bdd602088015194601f1995868b83030160408c0152610ca9565b6040880151858a83030160608b0152610ca9565b6060870151848983030160808a0152610ca9565b6080860151838883030160a0890152610ca9565b9060a0850151908683030160c0870152610ca9565b9160c0810151151560e085015260e08101511515610100850152610100810151151561012085015261ffff610120820151168285015201516101608301520390f35b60405162461bcd60e51b8152602060048201526011602482015270092dcecc2d8d2c840d8dece40d2dcc8caf607b1b6044820152606490fd5b91908251928382525f5b848110610cd3575050825f602080949584010152601f8019910116010190565b602081830181015184830182015201610cb3565b9181601f84011215610a49578235916001600160401b038311610a495760208381860195010111610a4957565b61016081019081106001600160401b0382111761063e57604052565b90601f801991011681019081106001600160401b0382111761063e57604052565b9291926001600160401b03821161063e5760405191610d7a601f8201601f191660200184610d30565b829481845281830111610a49578281602093845f960137010152565b905f918254811015610dce5782805260031b7f290decd9548b62a8d60345a988386fc84ba6bc95484008f6362f93160ef3e563019190565b634e487b7160e01b83526032600452602483fd5b90600182811c92168015610e10575b6020831014610dfc57565b634e487b7160e01b5f52602260045260245ffd5b91607f1691610df1565b908060209392818452848401375f828201840152601f01601f1916010190565b9060405191825f825492610e4d84610de2565b9081845260019485811690815f14610eb85750600114610e78575b5050610e7692500383610d30565b565b909391505f52602090815f20935f915b818310610ea0575050610e7693508201015f80610e68565b85548884018501529485019487945091830191610e88565b915050610e7694506020925060ff191682840152151560051b8201015f80610e6856fea26469706673582212209ee9b20d6a17e5bbc663534d7f9a94e28f45a7e3e395a8fad8ed1635a7bb9e8964736f6c63430008140033",
    "linkReferences": {}
  },
  "methodIdentifiers": {
    "createLog(string,string,string,string,string,string,bool,bool,bool,uint16)": "f98d6aae",
    "getLog(uint256)": "3206b2c6",
    "getLogCount()": "618033db"
  },
  "id": 20
}