{"abi":[{"type":"constructor","inputs":[{"name":"_verifierContract","type":"address","internalType":"address"},{"name":"_vkHash","type":"bytes32","internalType":"bytes32"},{"name":"_college","type":"address","internalType":"address"},{"name":"_initialRoot","type":"bytes32","internalType":"bytes32"}],"stateMutability":"nonpayable"},{"type":"function","name":"PROOF_VALIDITY_PERIOD","inputs":[],"outputs":[{"name":"","type":"uint256","internalType":"uint256"}],"stateMutability":"view"},{"type":"function","name":"PROVING_SYSTEM_ID","inputs":[],"outputs":[{"name":"","type":"bytes32","internalType":"bytes32"}],"stateMutability":"view"},{"type":"function","name":"batchProveCGPAEligibility","inputs":[{"name":"students","type":"address[]","internalType":"address[]"},{"name":"a","type":"uint256[2][]","internalType":"uint256[2][]"},{"name":"b","type":"uint256[2][2][]","internalType":"uint256[2][2][]"},{"name":"c","type":"uint256[2][]","internalType":"uint256[2][]"},{"name":"publicInputs","type":"uint256[3][]","internalType":"uint256[3][]"}],"outputs":[],"stateMutability":"nonpayable"},{"type":"function","name":"college","inputs":[],"outputs":[{"name":"","type":"address","internalType":"address"}],"stateMutability":"view"},{"type":"function","name":"hasSubmittedValidProof","inputs":[{"name":"","type":"address","internalType":"address"}],"outputs":[{"name":"","type":"bool","internalType":"bool"}],"stateMutability":"view"},{"type":"function","name":"lastUpdateTime","inputs":[],"outputs":[{"name":"","type":"uint256","internalType":"uint256"}],"stateMutability":"view"},{"type":"function","name":"merkleRoot","inputs":[],"outputs":[{"name":"","type":"bytes32","internalType":"bytes32"}],"stateMutability":"view"},{"type":"function","name":"proveCGPAEligibility","inputs":[{"name":"student","type":"address","internalType":"address"},{"name":"a","type":"uint256[2]","internalType":"uint256[2]"},{"name":"b","type":"uint256[2][2]","internalType":"uint256[2][2]"},{"name":"c","type":"uint256[2]","internalType":"uint256[2]"},{"name":"publicInputs","type":"uint256[3]","internalType":"uint256[3]"}],"outputs":[],"stateMutability":"nonpayable"},{"type":"function","name":"updateCollege","inputs":[{"name":"_newCollege","type":"address","internalType":"address"}],"outputs":[],"stateMutability":"nonpayable"},{"type":"function","name":"updateMerkleRoot","inputs":[{"name":"_newRoot","type":"bytes32","internalType":"bytes32"}],"outputs":[],"stateMutability":"nonpayable"},{"type":"function","name":"verifierContract","inputs":[],"outputs":[{"name":"","type":"address","internalType":"address"}],"stateMutability":"view"},{"type":"function","name":"vkHash","inputs":[],"outputs":[{"name":"","type":"bytes32","internalType":"bytes32"}],"stateMutability":"view"},{"type":"event","name":"CollegeUpdated","inputs":[{"name":"newCollege","type":"address","indexed":false,"internalType":"address"}],"anonymous":false},{"type":"event","name":"MerkleRootUpdated","inputs":[{"name":"newRoot","type":"bytes32","indexed":false,"internalType":"bytes32"},{"name":"timestamp","type":"uint256","indexed":false,"internalType":"uint256"}],"anonymous":false},{"type":"event","name":"SuccessfulProofSubmission","inputs":[{"name":"student","type":"address","indexed":true,"internalType":"address"},{"name":"timestamp","type":"uint256","indexed":false,"internalType":"uint256"}],"anonymous":false}],"bytecode":{"object":"0x60c060405234801561001057600080fd5b50604051610ff8380380610ff883398101604081905261002f916100f1565b6001600160a01b0384811660805260a0849052600080546001600160a01b03191691841691821790556002829055426003556040519081527f1fecc19ec2c98f3ec0fbec5270884b57ace192fbcce838fc3e6dcdf4829036779060200160405180910390a1604080518281524260208201527fecb6e184c8c1ff50ab199b30650a76b7eb56fe2f261becc6284e0a3a1707be48910160405180910390a150505050610135565b80516001600160a01b03811681146100ec57600080fd5b919050565b6000806000806080858703121561010757600080fd5b610110856100d5565b935060208501519250610125604086016100d5565b6060959095015193969295505050565b60805160a051610e90610168600039600061011a0152600081816101f2015281816103f401526106d10152610e906000f3fe608060405234801561001057600080fd5b50600436106100b45760003560e01c806372ef5fbb1161007157806372ef5fbb1461015957806375e516451461016c578063a8898a201461019f578063af019e44146101d1578063c8f33c91146101e4578063cf695688146101ed57600080fd5b80632eb4a7ab146100b957806338d86406146100d55780634783f0ef146101005780634fe840f5146101155780635524a0291461013c5780635bc9ab561461014f575b600080fd5b6100c260025481565b6040519081526020015b60405180910390f35b6000546100e8906001600160a01b031681565b6040516001600160a01b0390911681526020016100cc565b61011361010e36600461087f565b610214565b005b6100c27f000000000000000000000000000000000000000000000000000000000000000081565b61011361014a3660046108b4565b610290565b6100c262ed4e0081565b6101136101673660046109f1565b610308565b61018f61017a3660046108b4565b60016020526000908152604090205460ff1681565b60405190151581526020016100cc565b6100c26040516633b937ba34189b60c91b60208201526027016040516020818303038152906040528051906020012081565b6101136101df366004610b94565b61067c565b6100c260035481565b6100e87f000000000000000000000000000000000000000000000000000000000000000081565b6000546001600160a01b031633146102475760405162461bcd60e51b815260040161023e90610c83565b60405180910390fd5b60028190554260038190556040805183815260208101929092527fecb6e184c8c1ff50ab199b30650a76b7eb56fe2f261becc6284e0a3a1707be4891015b60405180910390a150565b6000546001600160a01b031633146102ba5760405162461bcd60e51b815260040161023e90610c83565b600080546001600160a01b0319166001600160a01b0383169081179091556040519081527f1fecc19ec2c98f3ec0fbec5270884b57ace192fbcce838fc3e6dcdf48290367790602001610285565b6000546001600160a01b031633146103325760405162461bcd60e51b815260040161023e90610c83565b888714801561034057508685145b801561034b57508483145b801561035657508281145b6103945760405162461bcd60e51b815260206004820152600f60248201526e098cadccee8d040dad2e6dac2e8c6d608b1b604482015260640161023e565b60005b8981101561066f5762ed4e006003546103b09190610cc8565b4211156103ef5760405162461bcd60e51b815260206004820152600d60248201526c141c9bdbd988195e1c1a5c9959609a1b604482015260640161023e565b6000807f00000000000000000000000000000000000000000000000000000000000000006001600160a01b03168b8b8581811061042e5761042e610ce1565b9050604002018a8a8681811061044657610446610ce1565b90506080020189898781811061045e5761045e610ce1565b90506040020188888881811061047657610476610ce1565b90506060020160405160240161048f9493929190610cf7565b60408051601f198184030181529181526020820180516001600160e01b03166308a3cff560e11b179052516104c49190610d43565b600060405180830381855afa9150503d80600081146104ff576040519150601f19603f3d011682016040523d82523d6000602084013e610504565b606091505b50915091508161054d5760405162461bcd60e51b815260206004820152601460248201527315995c9a599a595c8818d85b1b0819985a5b195960621b604482015260640161023e565b808060200190518101906105619190610d72565b61059d5760405162461bcd60e51b815260206004820152600d60248201526c24b73b30b634b210383937b7b360991b604482015260640161023e565b60018060008f8f878181106105b4576105b4610ce1565b90506020020160208101906105c991906108b4565b6001600160a01b031681526020810191909152604001600020805460ff19169115159190911790558c8c8481811061060357610603610ce1565b905060200201602081019061061891906108b4565b6001600160a01b03167f983551e754b9430db5550a3647659ade8282f506071c87317812f4264b967a524260405161065291815260200190565b60405180910390a25050808061066790610d94565b915050610397565b5050505050505050505050565b62ed4e0060035461068d9190610cc8565b4211156106cc5760405162461bcd60e51b815260206004820152600d60248201526c141c9bdbd988195e1c1a5c9959609a1b604482015260640161023e565b6000807f00000000000000000000000000000000000000000000000000000000000000006001600160a01b0316868686866040516024016107109493929190610dd6565b60408051601f198184030181529181526020820180516001600160e01b03166308a3cff560e11b179052516107459190610d43565b600060405180830381855afa9150503d8060008114610780576040519150601f19603f3d011682016040523d82523d6000602084013e610785565b606091505b5091509150816107ce5760405162461bcd60e51b815260206004820152601460248201527315995c9a599a595c8818d85b1b0819985a5b195960621b604482015260640161023e565b808060200190518101906107e29190610d72565b61081e5760405162461bcd60e51b815260206004820152600d60248201526c24b73b30b634b210383937b7b360991b604482015260640161023e565b6001600160a01b038716600081815260016020818152604092839020805460ff191690921790915590514281527f983551e754b9430db5550a3647659ade8282f506071c87317812f4264b967a52910160405180910390a250505050505050565b60006020828403121561089157600080fd5b5035919050565b80356001600160a01b03811681146108af57600080fd5b919050565b6000602082840312156108c657600080fd5b6108cf82610898565b9392505050565b60008083601f8401126108e857600080fd5b50813567ffffffffffffffff81111561090057600080fd5b6020830191508360208260051b850101111561091b57600080fd5b9250929050565b60008083601f84011261093457600080fd5b50813567ffffffffffffffff81111561094c57600080fd5b6020830191508360208260061b850101111561091b57600080fd5b60008083601f84011261097957600080fd5b50813567ffffffffffffffff81111561099157600080fd5b6020830191508360208260071b850101111561091b57600080fd5b60008083601f8401126109be57600080fd5b50813567ffffffffffffffff8111156109d657600080fd5b60208301915083602060608302850101111561091b57600080fd5b60008060008060008060008060008060a08b8d031215610a1057600080fd5b8a3567ffffffffffffffff80821115610a2857600080fd5b610a348e838f016108d6565b909c509a5060208d0135915080821115610a4d57600080fd5b610a598e838f01610922565b909a50985060408d0135915080821115610a7257600080fd5b610a7e8e838f01610967565b909850965060608d0135915080821115610a9757600080fd5b610aa38e838f01610922565b909650945060808d0135915080821115610abc57600080fd5b50610ac98d828e016109ac565b915080935050809150509295989b9194979a5092959850565b634e487b7160e01b600052604160045260246000fd5b6040805190810167ffffffffffffffff81118282101715610b1b57610b1b610ae2565b60405290565b6040516060810167ffffffffffffffff81118282101715610b1b57610b1b610ae2565b600082601f830112610b5557600080fd5b610b5d610af8565b806040840185811115610b6f57600080fd5b845b81811015610b89578035845260209384019301610b71565b509095945050505050565b6000806000806000610180808789031215610bae57600080fd5b610bb787610898565b95506020610bc789828a01610b44565b955088607f890112610bd857600080fd5b610be0610af8565b8060e08a018b811115610bf257600080fd5b60608b015b81811015610c1757610c098d82610b44565b845292840192604001610bf7565b50819750610c258c82610b44565b96505050508861013f890112610c3a57600080fd5b610c42610b21565b91880191808a841115610c5457600080fd5b6101208a015b84811015610c715780358352918301918301610c5a565b50809450505050509295509295909350565b60208082526015908201527413db9b1e4818dbdb1b1959d94818d85b8818d85b1b605a1b604082015260600190565b634e487b7160e01b600052601160045260246000fd5b80820180821115610cdb57610cdb610cb2565b92915050565b634e487b7160e01b600052603260045260246000fd5b61016081016040808784378083018660005b6002811015610d2657838284379183019190830190600101610d09565b505050808560c08501375060608361010084013795945050505050565b6000825160005b81811015610d645760208186018101518583015201610d4a565b506000920191825250919050565b600060208284031215610d8457600080fd5b815180151581146108cf57600080fd5b600060018201610da657610da6610cb2565b5060010190565b8060005b6002811015610dd0578151845260209384019390910190600101610db1565b50505050565b6101608101610de58287610dad565b60408083018660005b6002811015610e1557610e02838351610dad565b9183019160209190910190600101610dee565b50505050610e2660c0830185610dad565b61010082018360005b6003811015610e4e578151835260209283019290910190600101610e2f565b5050509594505050505056fea2646970667358221220c5ae6e7946dd1a368eba1a5b6a97894dec1e3f1631414eee1c8b4b0dcb4724c964736f6c63430008120033","linkReferences":{}},"methodIdentifiers":{"PROOF_VALIDITY_PERIOD()":"5bc9ab56","PROVING_SYSTEM_ID()":"a8898a20","batchProveCGPAEligibility(address[],uint256[2][],uint256[2][2][],uint256[2][],uint256[3][])":"72ef5fbb","college()":"38d86406","hasSubmittedValidProof(address)":"75e51645","lastUpdateTime()":"c8f33c91","merkleRoot()":"2eb4a7ab","proveCGPAEligibility(address,uint256[2],uint256[2][2],uint256[2],uint256[3])":"af019e44","updateCollege(address)":"5524a029","updateMerkleRoot(bytes32)":"4783f0ef","verifierContract()":"cf695688","vkHash()":"4fe840f5"},"id":15}